:020000040800F2
:10000000204E00207102000833120008031100087E
:1000100031120008CD0300083D1500080000000063
:10002000000000000000000000000000B101000816
:10003000F9030008000000000D020008411200084A
:100040008B0200088B0200088B0200088B0200085C
:100050008B0200088B020008FB0300088B020008DB
:100060008B0200088B0200088B0200088B0200083C
:100070008B0200088B0200088B0200088B0200082C
:100080008B0200088B0200088B02000800000000B1
:100090000000000000000000000000008B020008CB
:1000A0008B0200088B020008FD1200088B0200087A
:1000B0008B0200088B0200088B0200088B020008EC
:1000C0008B0200088B0200088B0200088B020008DC
:1000D0008B0200088B0200088B0200080000000061
:1000E0008B0200088B0200088B0200080000000051
:1000F0000000000000000000000000008B0200086B
:10010000000000008B0200088B0200088B02000830
:1001100000000000000000000000000000000000DF
:100120008B0200088B0200088B0200088B0200087B
:100130008B0200080000000000000000000000002A
:100140000000000000000000000000008B0200081A
:100150008B0200088B0200088B0200088B0200084B
:100160008B0200088B020008000000000000000065
:10017000000000000000000000000000000000007F
:10018000000000008B0200080000000000000000DA
:100190008B0200088B020008DFF810D000F004F991
:1001A0000048004771170008AFF30080204E002080
:1001B0002C4B19680868B0E8F04F80F30988BFF34A
:1001C0006F8F4FF0000080F311887047000000002F
:1001D00008480068006880F308884FF0000080F34A
:1001E000148862B661B6BFF34F8FBFF36F8F00DF25
:1001F00000BF00BF08ED00E0DFF80C00016841F42B
:1002000070010160704700BF88ED00E0EFF30980E6
:10021000BFF36F8F134B1A681EF0100F08BF20ED4D
:10022000108A20E9F04F106009B44FF0500080F3BD
:100230001188BFF34F8FBFF36F8F02F0EDF94FF0CE
:10024000000080F3118809BC19680868B0E8F04F15
:100250001EF0100F08BFB0EC108A80F30988BFF3BE
:100260006F8F704720000020EFF30580704700007B
:100270000648804706480047FEE7FEE7FEE7FEE740
:10028000FEE7FEE7FEE7FEE7FEE7FEE7ED12000809
:10029000990100082DE9F05F0546002092469B4633
:1002A00088460646814640241BE02846414647468C
:1002B000224600F069F853465A46C01A914110D3BD
:1002C00011461846224600F050F82D1A67EB010837
:1002D0004F4622460120002100F047F817EB0009A5
:1002E0004E41201EA4F10104DFDC484631462A4677
:1002F0004346BDE8F09F40EA01039B0703D009E0B5
:1003000008C9121F08C0042AFAD203E011F8013B01
:1003100000F8013B521EF9D27047D2B201E000F85A
:10032000012B491EFBD270470022F6E710B5134699
:100330000A4604461946FFF7F0FF204610BD30B5C7
:100340000B46014600202022012409E021FA02F593
:100350009D4205D303FA02F5491B04FA02F528442D
:10036000151EA2F10102F1DC30BD202A04DB203A87
:1003700000FA02F1002070479140C2F1200320FAF8
:1003800003F3194390407047202A04DB203A21FAF6
:1003900002F00021704721FA02F3D040C2F120029E
:1003A0009140084319467047064C074D06E0E06847
:1003B00040F0010394E8070098471034AC42F6D3AC
:1003C000FFF7EEFE6831000888310008FEE7000004
:1003D00001A001F0B5B800003530306D73207469AC
:1003E0006D652075707E0D0A000000000149002037
:1003F00008607047000000207047012000F004B83A
:1004000072B6FEE770470000044910B50A68024260
:1004100002D00860FFF7F6FF10BD0000143C014059
:100420002DE9F84FDFF8B8A10022012403254FF091
:100430000F090AF1040BAAF1040E00BF0B6804FABD
:1004400002F63340B34273D10F7907F00307012F4F
:1004500001D0022F16D187684FEA420805FA08FC3E
:1004600027EA0C07D1F80CC00CFA08FC4CEA070C80
:10047000C0F808C04768B7430E79C6F30016964027
:100480003E4346600E79F643B6070DD0C768560066
:1004900005FA06FC27EA0C07D1F808C00CFA06FC9E
:1004A0004CEA070CC0F80CC00E7906F00306022EC9
:1004B00010D1D60800EB8608D8F8206057074FEA1D
:1004C000D76C09FA0CF7BE430F6907FA0CF73743EC
:1004D000C8F8207006684FEA420C05FA0CF7BE43D4
:1004E0000F7907F0030707FA0CF7374307604E68E8
:1004F00016F4403F6DD03B4E376847F48047376075
:10050000366822F0030706F480460096364E07EB65
:10051000060CDCF8086897073F0F09FA07F826EA87
:100520000806DFF8C880404503D14FF000081EE000
:100530004FE0DFF8BC80404502D14FF0010816E0E3
:10054000DFF8B080404502D14FF002080FE0DFF83D
:10055000A880404502D14FF0030808E0DFF89C80F6
:10056000404502D14FF0040801E04FF0070808FAB7
:1005700007F848EA0608CCF80888DAF80060574619
:10058000D1F804C09E435FEACC2C00D51E433E60E8
:10059000DBF800605F46D1F804C09E435FEA8C2C14
:1005A00000D51E433E60DEF800607746D1F804C0F7
:1005B0009E435FEA8C3C00D51E433E60084F083FD7
:1005C0003E68D1F804C09E435FEACC3C00D51E4390
:1005D0003E60521C102AFFF431AFBDE8F88F0000D6
:1005E000083C014044380240003001400000024015
:1005F0000004024000080240000C024000100240CB
:10060000426921EA02030A4043EA024181617047DC
:100610000AB1816170470904FBE700000148806866
:1006200070470000100000200248816802781144E1
:1006300081607047100000200B4810B5016841F43C
:1006400000710160016841F480610160016841F45A
:1006500080710160032000F099F80F2000F006F887
:1006600000F04AF8002010BD003C024030B50546BD
:100670001C4887B00024016841F4802101600068B3
:1006800006A900F48020009001A800F02BF900F0EA
:1006900059F91549154AB0FBF1F11548491E026098
:1006A00040F2E732C0E90324C0E90114846100F09C
:1006B00043FB040012D10E4800F06CFB04000DD186
:1006C0001A2000F035F8102D07D2002229461A20F2
:1006D00000F03CF80748056000E0012407B0204620
:1006E00030BD00004438024040420F000048014045
:1006F000F0000020140000200C4882B0016841F492
:1007000080410160006800F4804000900748001FAD
:10071000016841F0805101600068002200F08050C3
:1007200000900F21901E02B000F010B84438024033
:10073000002809DB00F01F020121914040098000E0
:1007400000F1E020C0F8001170470000F0B40E4B3B
:100750001B680C46C3F30223C3F10705042D00D91F
:100760000425191D072901D2002300E0DB1E012604
:1007700006FA05F1491E214099409E40761E16401A
:100780003143F0BC00F0ECBE0CED00E0064900F097
:10079000070208684FF6FF03184040EA0220034AA8
:1007A00010430860704700000CED00E00000FA05FF
:1007B0002DE9F0470E46050065D0DFF81481D8F822
:1007C0000000F7B200F00700B04207D288F80070CE
:1007D000D8F8000000F00700B04254D128683D4C22
:1007E000810712D5400703D5206840F4E05020600F
:1007F0002878000703D5206840F460402060206816
:10080000A96820F0F000084320602878C0072DD0A8
:10081000304968680839012812D0022813D003280B
:1008200011D00968890700292DDA216821F0030118
:1008300001432160FFF7F2FE814641F2883A0EE063
:1008400009688903EFE709688901ECE7FFF7E6FE2D
:10085000A0EB0901514502D90320BDE8F0872068CB
:10086000696800F00C00B0EB810FEFD1D8F80010F0
:10087000404601F00701B14207D90770006800F057
:100880000700B04201D00120E7E72878400705D5EE
:100890002068E96820F4E0500843206028780007C9
:1008A00006D52068296920F4604040EAC100206034
:1008B00000F058F82168084AC1F30311515CC840A0
:1008C0000649086006480068FFF7D0FE0020C4E72C
:1008D000003C024008380240383100081C0000206B
:1008E000140000200F2202600C4A136803F0030377
:1008F0004360136803F0F0038360136803F4E0536C
:10090000C36012684FF4E05303EAD2020261044864
:10091000006800F0070008607047000008380240D7
:10092000003C02400448054900680968044AC1F3D4
:100930008221515CC84070471C00002008380240EA
:10094000483100080448054900680968044AC1F3B1
:100950004231515CC84070471C00002008380240FA
:1009600048310008154810B5006810F00C02144812
:1009700013D01449042A0FD0082A0ED10F4C241F7B
:100980002268236802F03F025B0207D52068C0F3AB
:100990008810A0FB010106E0084610BD2168C1F3E4
:1009A0008811A1FB00010023FFF774FC2168C1F34B
:1009B0000141491C4900B0FBF1F010BD083802406C
:1009C0000024F40040787D012DE9F84F04006ED03A
:1009D0002078DFF84C93C007A9F104054AD009F14B
:1009E00004000168C1F38101012908D00068C0F347
:1009F000810002280AD1D9F80000400206D52868F3
:100A0000800337D560680028E1D033E06068B0F536
:100A1000803F10D0B0F5A02F286810D020F480308F
:100A20002860286820F4802028606068A8B1FFF75B
:100A3000F5FD06460DE0286840F48030F4E740F408
:100A400080202860F7E700BFFFF7E8FD801B6428DF
:100A500073D828688003F7D50CE0FFF7DFFD064662
:100A600005E000BFFFF7DAFD801B6428F0D8286896
:100A70008003F7D42078DFF8AC8280074FF0000ABB
:100A80003ED5A748001D016811F00C0F08D0006882
:100A9000C0F3810002280BD1D9F80000400207D42E
:100AA0002868800716D5E068012800D112E033E1FC
:100AB000E068B8B10120C8F80000FFF7AFFD0646B6
:100AC00005E000BFFFF7AAFD801B0228C0D82868F8
:100AD0008007F7D52868216920F0F80040EAC100B6
:100AE00028600DE0C8F800A0FFF798FD064604E076
:100AF000FFF794FD801B02281FD828688007F7D4D1
:100B00002078000722D5864F87486169703771B118
:100B100001210160FFF782FD064604E0FFF77EFD3C
:100B2000801B022809D838688007F7D50EE0C0F886
:100B300000A0FFF773FD064605E082E0FFF76EFDBB
:100B4000801B02287DD838688007F7D420784007BA
:100B500068D5DFF8CCB100270BF13C0BDBF80000C7
:100B6000C0000BD4DBF8001041F08051CBF800102E
:100B7000DBF80000012700F0805000906B4E3068D9
:100B8000C00510D4306840F480703060FFF746FD37
:100B9000009005E0FFF742FD0099401A022850D866
:100BA0003068C005F6D55E4EA0686C3601280FD0BF
:100BB0000528306810D020F001003060306820F047
:100BC00004003060A068B8B1FFF728FD00900FE086
:100BD000306840F00100F4E740F004003060F7E7CF
:100BE000FFF71CFD0099411A41F28830814266D816
:100BF00030688007F4D50EE0FFF710FD009007E0A5
:100C0000FFF70CFD0099411A41F28830814256D815
:100C100030688007F4D42FB1DBF8001021F0805148
:100C2000CBF80010A069C8B33D49091D0968C1F39C
:100C3000810102294AD00228504607D0C8F8600036
:100C400000E03CE0FFF7EAFC04463BE04746C8F81A
:100C50006000FFF7E3FC064605E000BFFFF7DEFC9F
:100C6000801B02282BD828688001F7D4D4E907011B
:100C70000843A16A2E4A490802EB0141626A41EA2F
:100C80008211084394F82C1040EA0161C9F8001061
:100C900001203866FFF7C2FC044606E03EE000BFD4
:100CA000FFF7BCFC001B022809D828688001F7D593
:100CB00034E000BFFFF7B2FC001B022802D903207A
:100CC000BDE8F88F28688001F4D427E00128F7D028
:100CD000D9F80000E26900F4800191421CD1226A37
:100CE00000F03F01914217D147F6C071626A01409E
:100CF000B1EB821F10D1A26A4FF0FF3300F44031F4
:100D000003EB5202B1EB024F06D194F82C1000F025
:100D10007060B0EB016F01D00120D1E70020CFE778
:100D20000438024000004742800E474200700040F5
:100D30000000FFFF7047704710B5040003D094F81F
:100D40003D0010B107E0012010BD002084F83C00F8
:100D5000204600F01EF8022084F83D00211D206886
:100D600000F0D2FA012084F8460084F83E0084F8AE
:100D70003F0084F8400084F8410084F8420084F881
:100D8000430084F8440084F8450084F83D000020C6
:100D900010BD704790F83D10012901D00120704727
:100DA000022180F83D100168CA6842F00102CA6061
:100DB00000680E4988420ED0B0F1804F0BD00C492C
:100DC000884208D00B49884205D00B49884202D09E
:100DD0000A49884204D1816801F00701062903D03D
:100DE000016841F0010101600020704700000140EE
:100DF0000004004000080040000C0040004001409A
:100E0000704770B50446006801694FF00005C9439A
:100E1000890715D4C168C943890711D4E91E016146
:100E200001202077206880698007204602D0FFF7E4
:100E3000E7FF04E000F098F8204600F096F82577E8
:100E400020680169C943490717D4C168C9434907E4
:100E500013D46FF0040101610220207720688069BB
:100E600010F4407F204602D0FFF7CAFF04E000F0F4
:100E70007BF8204600F079F8257720680169C9439E
:100E8000090716D4C168C943090712D46FF00801D5
:100E90000161042020772068C0698007204602D0C5
:100EA000FFF7AEFF04E000F05FF8204600F05DF8C9
:100EB000257720680169C943C90617D4C168C943A9
:100EC000C90613D46FF01001016108202077206853
:100ED000C06910F4407F204602D0FFF791FF04E084
:100EE00000F042F8204600F040F8257720680169BC
:100EF000C943C90708D1C168C943C90704D1891EBC
:100F00000161204600F032F820680169C9430906F2
:100F100009D4C168C943090605D46FF08001016195
:100F20002046FFF707FF20680169C943490609D435
:100F3000C168C943490605D46FF0400101612046EC
:100F400000F01EF820680169C94389060BD4C16806
:100F5000C943890607D46FF0200101612046BDE82E
:100F60007040FFF7E8BE70BD7047704700680349E6
:100F7000884201D1FFF758BB70470000004801408C
:100F8000704770B5040004D094F83D00002510B1FE
:100F900006E0012070BD84F83C50204600F022F8A5
:100FA000242084F83D002068C16821F40051C1600C
:100FB000204600F001FA2068016921F490410161A6
:100FC0002068416921F02A0141612068C16841F42B
:100FD0000051C1602564202084F83D0084F83E0063
:100FE000002070BD10B586B0044614216846FFF796
:100FF0009BF914492068884221D1134800210268D6
:1010000042F010020260006800F0100005900E48E7
:101010001438026842F001020260006800F001002A
:1010200005904FF4C06000900220CDE9010103203B
:1010300003900720049069460448FFF7F1F906B0D1
:1010400010BD000000100140443802400000024082
:101050002DE9F843044690F83D001F4616460D461C
:1010600020284CD1C5B1BEB194F83C00012846D02F
:10107000012084F83C004FF00008C4F84080212093
:1010800084F83D00FFF7CAFAA6848146E684A0688A
:10109000B0F5805F03D004E00120BDE8F88320694B
:1010A00028B12E465FF0000584F83C800EE0002653
:1010B000FAE78021204600F005FAA0B9AEB116F893
:1010C000010B21684860E08C401EE084E08C4B46B8
:1010D0004FF0000200970028EBD14FF0400120466E
:1010E00000F0F0F930B10320D7E735F8020BC0F378
:1010F0000800E6E7202084F83D000020CDE702202C
:10110000CBE7FEE700B587B014216846FFF70CF97E
:101110000E48016841F00101016000684FF40411BC
:1011200000F0010005900120CDE900010290694620
:101130000748FFF775F9002211460620FFF706FB66
:101140000620FFF7F5FA07B000BD00003038024076
:101150000000024010B5084B00220121074800F0B2
:1011600099FB074C044A0021A060243A054800F08E
:101170004BFB606010BD000028310008D10300085F
:10118000040000203512000870B586B014216846AE
:10119000FFF7CAF816480024016841F00401016015
:1011A000016801F004010591016841F080010160CE
:1011B000016801F080010591016841F001010160C1
:1011C00000680C4E00F001004FF40055059000221D
:1011D00029463046FFF71CFA01200095CDE90104AD
:1011E000694630460394FFF71BF906B070BD000056
:1011F00030380240000802400C4810B50A4901602E
:101200004FF4E1314160002181600C22C160C0E9EE
:1012100004128161C161FFF7B4FE002803D0BDE86C
:101220001040FFF7EDB810BD00100140AC000020E9
:10123000FEE7FEE74FF4FA74204600F0AAFAFBE757
:1012400010B54FF0E020006901F06CFD012803D0DB
:10125000BDE8104001F09ABA10BD000030B593B05F
:1012600030216846FFF760F814210CA8FFF75CF8FE
:101270001C480024016841F080510160006800F0C2
:10128000805011901848016841F4404101600068A5
:10129000022500F44040119001200390102004909A
:1012A000009506950820CDE907406420CDE90905A1
:1012B00004200B906846FFF787FB08B172B6FEE783
:1012C0000F20CDE90C054FF48050CDE90E400321ED
:1012D0000CA81094FFF76CFA002801D072B6FEE754
:1012E00013B030BD40380240007000400248016831
:1012F00041F470010160704788ED00E00148FFF79C
:1013000080BD0000F0000020F0B502681D4B1E4CAF
:101310009F031E4D1E4E984207D0B84205D0A042F2
:1013200003D0A84201D0B04204D122F0700C4A6828
:1013300042EA0C02984210D0B8420ED0A0420CD023
:10134000A8420AD0B04208D0124CA04205D0124C9C
:10135000A04202D0114CA04203D122F44074CA68CA
:1013600022434C6922F08002224302608A68C262F2
:101370000A688262984201D10969016301214161D1
:10138000F0BD0000000001400004004000080040E3
:10139000000C004000400140004401400048014072
:1013A00010B500F013FF002805D0D0E90021BDE8FA
:1013B00010400846104710BD70B50446006801692A
:1013C000E26821F44051114301612169A068E2699A
:1013D00008436169114308432168CA6849F20C63F4
:1013E0009A430243CA6020684169A26921F44071AE
:1013F0001143416131492068884202D03049884216
:1014000002D1FFF79FFA01E0FFF78CFAE2690023AF
:10141000192164253226B2F5004F626828D0A0FB5E
:101420000101930F9200FEF735FF0146B0FBF5F086
:101430006FF01802504301EB800006EB0010B0FB88
:10144000F5F000F0F002B1FBF5F002EB0012B1FB99
:10145000F5F06FF01803584301EB800006EB001025
:10146000B0FBF5F000F00F0021681044886070BDFB
:10147000A0FB010192185B41FEF70CFF0146B0FB97
:10148000F5F00201B1FBF5F06FF01803584301EBE2
:10149000800006EBC000B0FBF5F000F0F80002EBB6
:1014A0004002B1FBF5F0584301EB800006EBC000B1
:1014B000B0FBF5F000F00700D6E700000010014097
:1014C000001401402DE9F041984617460E460446A7
:1014D000069D27E0681C25D02DB1FFF79FF8A0EBF3
:1014E0000800A8421ED920680C3050E8001F21F4E3
:1014F000D07140E80012002AF5D12068143050E87D
:10150000001F21F0010140E80012002AF5D120203F
:1015100084F83D0084F83E00002084F83C0003205D
:10152000BDE8F0812068006836EA000004D00020A1
:10153000B842CFD00020F3E70120F9E7FEE7000032
:101540000FB4054B10B503A9044A029800F028F81F
:1015500010BC5DF814FB000059170008A80000201B
:101560000907090E002804DB00F1E02080F80014D0
:10157000704700F00F0000F1E02080F8141D704764
:1015800002E008C8121F08C1002AFAD1704770474C
:10159000002001E001C1121F002AFBD170470000AA
:1015A0002DE9FF4F8BB09A460F460546002606E010
:1015B00025280BD052460D9990476D1C761C287833
:1015C0000028F5D10FB03046BDE8F08F0024A046CA
:1015D0000122604900E0044315F8013F203B02FA74
:1015E00003F00842F7D128782E2817D115F8010FFB
:1015F00044F004042A280ED06FF02F022878A0F1BE
:10160000300109290AD808EB880102EB410100EBFF
:1016100001086D1CF2E757F8048B6D1C28786928C7
:101620003ED006DC0028CDD063280BD0642804D13E
:1016300036E0732810D075284BD052460D9990474C
:10164000761C85E017F8040B8DF8000000208DF85B
:101650000100E946012003E057F8049B4FF0FF30FA
:1016600061074FF0000401D40AE0641C44450DDA20
:101670008442FADB19F804100029F6D106E0641C54
:101680008442FCDB19F804100029F8D1264404E058
:1016900019F8010B52460D999047641EF8D257E095
:1016A00001CF4FF00A0B002802DA40422D2102E060
:1016B000210504D52B218DF82410012103E0E10739
:1016C00005D02021F7E70DF1200908910CE0002159
:1016D000F9E701CF4FF00A0BF9E75946FEF72FFE65
:1016E00001F1300209F8012D0028F6D1ADEB090017
:1016F00000F1200B600701D44FF00108D84502DD4E
:10170000A8EB0B0000E000208046002406E009A8BA
:101710005246005D0D999047641C761C08988442DF
:10172000F5DB04E0302052460D999047761CB8F165
:101730000001A8F10108F5DC05E019F8010B52469B
:101740000D999047761CBBF10001ABF1010BF4DC65
:101750006D1C34E70928010013B54FF6FF73012211
:1017600069460248FFF774FC00981CBDAC000020DD
:10177000FEF762FFFFF772FDFFF706FDFFF73CFD86
:10178000FFF7C0FC00F012F8FFF7E4FC00F020F8CF
:10179000FEE710B5EFF3058111B16FF0050403E02A
:1017A000002408B100F082FE204610BDEFF3058052
:1017B00010B16FF0050070470448016811B14FF097
:1017C000FF30704701210160002070477800002041
:1017D00010B5EFF3058010B16FF0050010BD08489B
:1017E0000168012902D04FF0FF3010BD054A0021E9
:1017F00082F8141D0221016000F0C0FE002010BD1F
:10180000780000200BE000E02DE9FF414FEA0103E2
:101810004FF00005EFF30581039549BB40B38027E6
:10182000182100244AB3166806B1344696691EB1E1
:101830003146761E382E02D21679F60703D00020E4
:1018400004B0BDE8F081566906B1B708D2F808C007
:10185000BCF1000F0DD0D568642D18D312693AB1D0
:1018600036B18DE806103A46214601F030FA039071
:101870000DE0D6685EB912694AB903AACDE9001233
:10188000BAB2214601F0F6F9012800D00395039879
:10189000D6E700002DE9FC471C46904689460746DE
:1018A0004FF00006EFF3058058BB57B3082000F057
:1018B0001FFC050025D0C5E90078B9F1000F12D052
:1018C0000122114B002094B1216801B10846A168A2
:1018D00059B1E4682C2C11D3CDE900312B460121FC
:1018E00001F094FB08E00022EBE7E16831B90093D6
:1018F0002B46012101F070FB060002D1284600F0C2
:1019000031FD3046BDE8FC87A11300082DE9F04108
:10191000134C0F460546E6682068001D00F07EFC6B
:10192000681C07D137B12168BDE8F0410D48091D99
:1019300000F0D8BC20683544B5424560216805D226
:10194000206CBDE8F041091D00F0B4BCE06B091D3E
:1019500000F0B0FCA06A854200D2A562BDE8F0812B
:1019600020000020280600202DE9F041054600F067
:10197000C5FC2D4CA068401CA06020682B4F10B106
:10198000606930B32BE02560A068012827D10026CC
:1019900006EB860007EB800000F07EFC761C382EFC
:1019A000F6D3234800F078FC2148143000F074FC92
:1019B0001F48283000F070FC1D483C3000F06CFCE3
:1019C0001B48503000F068FC1948E0631430206474
:1019D00005E02068E96AC06A884200D82560606A2C
:1019E000401C6062A864E86A2169884200D92061CD
:1019F00000EB800007EB8000291D00F073FC00F075
:101A00009DFC606900280CD02068E96AC06A8842A1
:101A100007D208494FF080500860BFF34F8FBFF3E3
:101A20006F8FBDE8F08100002000002078010020C9
:101A3000D805002004ED00E038B500F05FFC104C44
:101A40002068C8B90F4800F027FC0E48143000F099
:101A500023FC0C48E060143020610A4B0020F03B6E
:101A6000009003F1500210210A2000F0A5FE206032
:101A700010B105A100F0E4FCBDE8384000F05EBC08
:101A8000640000202C070020546D725100000000FB
:101A900030B4026C0B46002A0BD0C1681144C160FF
:101AA0008468A14201D30168C16030BC1846FEF7CA
:101AB00022BC30BC70472DE9F041856B17460446C7
:101AC0000026026C82B1C7B1E068FEF714FCE16841
:101AD000206C091AE1602268914202D2A168081ABA
:101AE000E060022F16D017E02068A8B9A06801F0C6
:101AF00099F906460020A0600EE06068FEF7FBFB47
:101B0000216C606808446060A168884204D3206842
:101B1000606001E005B16D1E6D1CA5633046BDE837
:101B2000F08110B5044690F8610058B101280CD03E
:101B300002280FD0502080F31188BFF34F8FBFF3DE
:101B40006F8FFEE7206B00F00DFC2046BDE81040D3
:101B500000F008BC10BD000010484FF4705142075F
:101B600006D0C01D0D4920F00700411AC1F5705183
:101B70000B4A00230144C2E900030839183A21F056
:101B8000070111604B600B600B1AC0E900139360F2
:101B90004FF0004053605061704700001C0E002061
:101BA00094000020144E154CA6F29C474FF080582C
:101BB000DFF84C9012E000BF00F0A0FBF068C568B1
:101BC000281D00F02BFBA068401EA0606068401E2E
:101BD000606000F0B3FB2846FFF7A3FF60680028B1
:101BE000EAD138680128F9D9C9F80080BFF34F8FCE
:101BF000BFF36F8FF2E700001406002020000020E2
:101C000004ED00E070B51D46049C51B1C4F80020FD
:101C1000C4E90F010121204600F002FE84F84C5077
:101C200070BD2460F4E72DE9F05F8846DDE90B9490
:101C30001546834691009A460A9EA522206BFEF720
:101C40006CFB6FF00301206B01EB8501084420F071
:101C50000707780707D0502080F31188BFF34F8F14
:101C6000BFF36F8FFEE700256764B8F1000F0ED059
:101C70000020221818F8001082F8341018F800100C
:101C800011B1401C1028F4D384F8435001E084F8CB
:101C90003450382E00D33726E662C4E91465201D7F
:101CA00000F005FB04F1180000F001FB2461C6F10F
:101CB00038006462A061A565E56584F8605052460D
:101CC0005946384600F094FA2060B9F1000F01D06F
:101CD000C9F80040BDE8F09F2DE9F0471E46DDE958
:101CE000089417460D00804615D0002C11D0FFF740
:101CF000A3FE04F11801C4F8008081E86002201DF1
:101D000000F0D5FA002F04D014F8280F40F004009A
:101D10002070BDE8F087502080F31188BFF34F8F0B
:101D2000BFF36F8FFEE7000030B5114900E01146A8
:101D30000A688242FBD34B685C18844203D1406836
:101D400018444860084643681C18944209D1084C5E
:101D5000183C2468A24209D052681A4442600A68BA
:101D600012680260814200D0086030BD0460F9E76B
:101D70009400002070B5002441600B4D0061914239
:101D800006D8D11A8269914206D2011D286907E05E
:101D90009A4203D2994201D3012403E0011DE8686D
:101DA00000F088FA204670BD6400002010B504469B
:101DB00000F0A4FAA06B28B15FF0000400F0BEFAB6
:101DC000204610BD0124F9E730B589B03C4D6EE0E6
:101DD0000498002806DADDE90601059A9047049880
:101DE000002864DB069C606910B1201D00F016FA23
:101DF00003A800F0D7F8024604980A2857D2DFE873
:101E000000F00505052D334A05052D3394F828000B
:101E100040F0010084F828000599A069059B014461
:101E20002046FFF7A7FF68B3216A2046884794F849
:101E3000280040073BD5002000900598A1690023A9
:101E400042181946204601F029F9D8B9502080F3EC
:101E50001188BFF34F8FBFF36F8FFEE714F8280F81
:101E600020F00100207022E094F8280040F00100EA
:101E700084F828000598A06128B1811813462046EF
:101E8000FFF778FF13E0502080F31188BFF34F8FE6
:101E9000BFF36F8FFEE794F82800810703D4204634
:101EA00000F060FA03E020F0010084F8280000222E
:101EB00004A9286800F008FE002889D109B030BDC7
:101EC000640000202DE9FC410F46054600F09CFB14
:101ED00001A800F067F80446019818B101F01AF85B
:101EE000BDE8FC81254EAFB130690068D0B3002752
:101EF000291B3A46306800F0B7FA01F00BF80028C9
:101F0000EED11F494FF080500860BFF34F8FBFF3F1
:101F10006F8FE5E7A542EBD800F0FCFFF06827469D
:101F2000C068C468201D00F079F994F828004107C2
:101F300019D5A0692B4641193A462046FFF71AFFEA
:101F4000A8B100200346014600902A46204601F031
:101F5000A5F860B9502080F31188BFF34F8FBFF30D
:101F60006F8FFEE707E020F0010084F82800216A67
:101F700020468847B4E70127BAE700006400002044
:101F800004ED00E00648C16B096829B1C16BC9685E
:101F9000C9684968816270474FF0FF31FAE7000075
:101FA0002000002070B5054600F0CAFE064E04462B
:101FB000B068844203D200F009F8012000E000205C
:101FC00028602046B46070BD64000020F8B5194D4B
:101FD00020E0C068C4680668201D00F01FF9216A6F
:101FE0002046884794F82800400713D5A06930445C
:101FF000B04206D924616060211DE86800F05AF9FA
:1020000008E000200346014600903246204601F0D9
:1020100045F838B1E86801680029DAD12969C5E9CD
:102020000310F8BD502080F31188BFF34F8FBFF32A
:102030006F8FFEE76400002008484068401C4FF0A6
:10204000500080F3118804D0BFF34F8FBFF36F8F20
:10205000FEE7BFF34F8FBFF36F8FFEE79C000020BA
:10206000074CE068016841B1C0680021D0F8000069
:10207000FFF728FFFFF7A8FEF3E701210020F7E7AD
:10208000640000202DE9F041044600F037F994F98E
:10209000455004F1240609E0606A48B1304600F07A
:1020A00001FF08B100F030FA6D1E6DB2002DF3DCB7
:1020B0004FF0FF3684F8456000F040F900F01EF95B
:1020C00094F9445004F1100709E0206948B13846FA
:1020D00000F0E8FE08B100F017FA6D1E6DB2002D99
:1020E000F3DC84F84460BDE8F04100F027B900005B
:1020F0002DE9F0410546002700F086FA324E30689F
:1021000008B9FFF729FD706905424ED1C5B30835FE
:1021100068070ED005F00700C0F108000544680705
:1021200007D0502080F31188BFF34F8FBFF36F8F1C
:10213000FEE72DB37068854237D823481830014632
:102140000C6801E020460C466168A94202D2216871
:102150000029F7D131688C4227D0076821680160D7
:1021600060680837411B10290FD96019420708D051
:10217000502080F31188BFF34F8FBFF36F8FFEE7BE
:1021800013E041606560FFF7CFFD61687068401A39
:102190007060B268904200D2B06070690143002064
:1021A000C4E90001F068401CF06000F0B3FE78075D
:1021B00007D0502080F31188BFF34F8FBFF36F8F8C
:1021C000FEE73846BDE8F0817C00002010B5040031
:1021D00006D000F093F8E46900F0B0F8204610BD96
:1021E000502080F31188BFF34F8FBFF36F8FFEE74E
:1021F00010B5031F4FF080741C601B1F21F00101FC
:102200001960191F044B0B6014390A60091F6FF025
:10221000020244380A6010BD39200008D0E90132BA
:1022200001699A60D0E901235A604A68824201D16B
:1022300082684A60002202610868401E08600868DF
:1022400070470000034B036003F1640008608020C6
:102250001060704754070020044B036003F16400D2
:1022600008604FF48070106070470000B8090020CB
:1022700007480188491C89B20180B1F5FA7F06D967
:10228000002101804FF400510248FEF7B9B97047B0
:10229000040000200008024000F108014FF0FF3266
:1022A000C0E90112C1600161002101607047002195
:1022B0000161704730B50B685A1C02D000F108026A
:1022C00002E0026904E02246546825689D42FAD97A
:1022D00053684B6099608A60516008610168491CCD
:1022E000016030BD42684A6093688B6093685960B2
:1022F000916008610168491C01607047502080F3BB
:102300001188BFF34F8FBFF36F8F0A494868401C95
:10231000486001280CD10848006810F0FF0F07D072
:10232000502080F31188BFF34F8FBFF36F8FFEE70C
:10233000704700009C00002004ED00E00849486858
:1023400028B1401E486001D180F3118870475020A9
:1023500080F31188BFF34F8FBFF36F8FFEE700004C
:102360009C00002070B500282AD0164DA0F108046A
:1023700060686969084207D1502080F31188BFF373
:102380004F8FBFF36F8FFEE722683AB1502080F382
:102390001188BFF34F8FBFF36F8FFEE788436060F4
:1023A00000F032F960686968084468602046FFF709
:1023B000BBFC2869401C2861BDE8704000F0AABD44
:1023C00070BD00007C0000204FF0E0200021016182
:1023D000816105494FF47A720968B1FBF2F1491E37
:1023E00041610721016170471C00002010B5FDF715
:1023F0003BFF114910280ED300F1E02090F8F003C4
:102400000A78904207D2502080F31188BFF34F8F93
:10241000BFF36F8FFEE709480068896800F4E06049
:10242000884207D9502080F31188BFF34F8FBFF344
:102430006F8FFEE710BD00009C0000200CED00E057
:1024400010B5084B002200BF53F832401CB1521C9B
:10245000082AF9D310BD43F8321003EBC2014860DB
:1024600010BD00003801002070B515460E46044628
:10247000FFF744FF94F944100020491C01D184F86F
:10248000440094F94510491C01D184F84500FFF738
:1024900055FFA06B28B92A46314604F1240000F00C
:1024A00051F82046BDE87040FFF7ECBD10B50200C2
:1024B00014D00F48006B38B1502080F31188BFF35F
:1024C0004F8FBFF36F8FFEE700F09EF8002110469C
:1024D000FFF71CFA00F01EFD002807D105494FF058
:1024E00080500860BFF34F8FBFF36F8F10BD0000A7
:1024F0002000002004ED00E002490A6A0260C96879
:10250000416070472000002001490120C8617047E8
:102510002000002010B50C4650B109490968183157
:10252000FFF7C8FE2046BDE810400121FFF7EEB9D5
:10253000502080F31188BFF34F8FBFF36F8FFEE7FA
:102540002000002070B514460D4668B10A4909689C
:102550001831FFF7C7FE0CB14FF0FF352146284672
:10256000BDE87040FFF7D2B9502080F31188BFF367
:102570004F8FBFF36F8FFEE72000002030B587B08C
:102580000024039405AA04A903A80494FFF75AFEA3
:10259000DDE903010094CDE90110002316A11848DC
:1025A000059A00F094FB174D0028E86221D000F056
:1025B00045FD012809D0401C1BD1502080F3118813
:1025C000BFF34F8FBFF36F8FFEE7502080F311886A
:1025D000BFF34F8FBFF36F8F4FF0FF30A862012022
:1025E0006861EC60FDF702FF07B0BDE8304000F025
:1025F00053B807B030BD000049444C45000000000E
:10260000A51B0008200000200248016B491C016343
:1026100070470000200000201C4810B5016B11B16C
:102620000121C16110BD0021C1611949096881639F
:10263000436B994204D90268CB1A946D2344936585
:1026400041630169134A01E0B9B1491E01EB8103FD
:1026500052F82330002BF7D001EB810302EB830209
:1026600002F1080453685B685360A34201D15B68C0
:102670005360DA680260016110BD502080F3118858
:10268000BFF34F8FBFF36F8FFEE7000020000020E5
:1026900000000020780100201CB537480168374A47
:1026A000914207D1502080F31188BFF34F8FBFF3C1
:1026B0006F8FFEE700683149491E884207D15020DC
:1026C00080F31188BFF34F8FBFF36F8FFEE72C4964
:1026D00008780190FF20087008788DF800009DF8B8
:1026E00000009DF8002000F0F000904207D050203C
:1026F00080F31188BFF34F8FBFF36F8FFEE79DF814
:102700000000204C00F0500020700720A06005E081
:102710009DF8002052008DF80020401E9DF80020FA
:102720001206F5D4A060032807D0502080F311884A
:10273000BFF34F8FBFF36F8FFEE74FF44070A06081
:10274000019808700C482030016841F47001016064
:10275000016841F070410160FFF736FE00206060C3
:10276000FDF74AFD0848016841F040410160FDF76E
:102770002FFD00201CBD000000ED00E071C20F41E4
:1027800000E400E09C00002034EF00E010B5502091
:1027900080F31188BFF34F8FBFF36F8F00F0D6FA2D
:1027A00018B104494FF080500860002080F3118870
:1027B00010BD000004ED00E038B5049D18B153B120
:1027C000CAB181B120E0502080F31188BFF34F8F50
:1027D000BFF36F8FFEE7502080F31188BFF34F8F58
:1027E000BFF36F8FFEE7502080F31188BFF34F8F48
:1027F000BFF36F8FFEE739B1502080F31188BFF32C
:102800004F8FBFF36F8FFEE750241C46012384F8DF
:1028100046302B460094FFF7F5F9204638BD0000FE
:1028200070B50D46040025D0FFF768FDD4E90F20F0
:10283000216802FB0011A1600021A1632168616091
:102840000A46D4E90F01401E00FB0121E160214648
:102850004FF0FF3001F8440F487004F110008DB1C3
:10286000FFF71AFD04F12400FFF716FDFFF766FDE0
:10287000012070BD502080F31188BFF34F8FBFF34C
:102880006F8FFEE721690029F0D000F00BFB0028D4
:10289000ECD004494FF080500860BFF34F8FBFF376
:1028A0006F8FE3E704ED00E02DE9FF4782B01D469E
:1028B0008A464FF00008040003D0BAF1000F08D098
:1028C00011E0502080F31188BFF34F8FBFF36F8F5B
:1028D000FEE7206C38B1502080F31188BFF34F8F92
:1028E000BFF36F8FFEE7022D0AD1E06B012807D0FE
:1028F000502080F31188BFF34F8FBFF36F8FFEE737
:1029000000F010FA3F4F4FF000094FF0805648B9E1
:10291000049838B1502080F31188BFF34F8FBFF374
:102920006F8FFEE7FFF7EAFCA06BE16B884207D3ED
:10293000022D05D00498D0B1B8F1000F1AD01EE0D6
:102940002A4651462046FFF7B6F8616A19B104F1EC
:10295000240000F0A7FA20B13E60BFF34F8FBFF311
:102960006F8FFFF7EBFC012006B0BDE8F087FFF7A3
:10297000E5FC22E06846FFF7BFFD4FF00108FFF7D6
:10298000DDFCFFF741FEFFF7B9FC94F94400401C61
:1029900001D184F8449094F94500401C01D184F899
:1029A0004590FFF7CBFC04A9684600F029F930B147
:1029B0002046FFF767FB00F0ADFA0020D4E7FFF7F1
:1029C0009DFCA06BE16B884213D1FFF7B7FC04F1CB
:1029D00010000499FFF79EFD2046FFF753FB00F01F
:1029E00099FA00289ED13E60BFF34F8FBFF36F8FDF
:1029F00098E7FFF7A3FC2046FFF744FB00F08AFAB4
:102A000090E7000004ED00E02DE9F0471F469046F6
:102A10008946040003D0B9F1000F08D011E050201E
:102A200080F31188BFF34F8FBFF36F8FFEE7206CE9
:102A300038B1502080F31188BFF34F8FBFF36F8FF1
:102A4000FEE7022F0AD1E06B012807D0502080F367
:102A50001188BFF34F8FBFF36F8FFEE7FFF7C6FC00
:102A60005020EFF3118680F31188BFF34F8FBFF32F
:102A70006F8FA06BE16B884206D3022F04D0002039
:102A800086F31188BDE8F08794F94550A06B3A466B
:102A900049462046FFF70FF8681C04D06D1C84F8E7
:102AA00045500120ECE7606A0028FAD004F12400C8
:102AB00000F0F8F90028F4D0B8F1000FF1D00121AE
:102AC000C8F80010EDE700002DE9F747002683B0B5
:102AD0008A46040003D0BAF1000F08D011E050205C
:102AE00080F31188BFF34F8FBFF36F8FFEE7206C29
:102AF00038B1502080F31188BFF34F8FBFF36F8F31
:102B0000FEE700F00FF9DFF8F4804FF000094FF016
:102B1000805748B9059838B1502080F31188BFF329
:102B20004F8FBFF36F8FFEE7FFF7E8FBA56BC5B1D3
:102B300051462046FEF7ACFF6D1EA563206950B1DB
:102B400004F1100000F0AEF928B1C8F80070BFF32E
:102B50004F8FBFF36F8FFFF7F1FB012006B0BDE889
:102B6000F087059808B11EB106E0FFF7E7FB27E004
:102B70006846FFF7C1FC0126FFF7E0FBFFF744FDC5
:102B8000FFF7BCFB94F94400401C01D184F8449049
:102B900094F94500401C01D184F84590FFF7CEFB25
:102BA00005A9684600F02CF8002820460AD0FFF757
:102BB00069FA00F0AFF92046FFF7F8F80028B3D023
:102BC0000020CBE7FFF7F2F890B104F1240005995B
:102BD000FFF7A0FC2046FFF755FA00F09BF900280C
:102BE000A2D1C8F80070BFF34F8FBFF36F8F9BE780
:102BF0002046FFF747FA00F08DF995E704ED00E075
:102C00002DE9F0410C46050011D0C4B1FFF776FB69
:102C1000174BDA686E682068911B471C17D02F6825
:102C20001B6A9F4219D0964217D8012410E0502009
:102C300080F31188BFF34F8FBFF36F8FFEE75020F3
:102C400080F31188BFF34F8FBFF36F8FFEE700242F
:102C5000FFF774FB2046BDE8F081884205D9401A91
:102C600020602846FFF748FCF1E700202060DCE701
:102C7000200000202DE9FF5F8346DDE90E8799469D
:102C800016468A469000FFF733FA05001CD06420F0
:102C9000FFF72EFA040014D00020256384F86100A9
:102CA000CDE90240CDE900874B46324651465846B1
:102CB000FEF7B9FF2046FEF757FE012004B0BDE83D
:102CC000F09F2846FFF74EFB4FF0FF30F6E7F0B5D8
:102CD00085B0DDE90B640A9DA6B1DCB164270097DD
:102CE0002663022684F86160002604AFCDE902461F
:102CF000CDE90057FEF797FF2046FEF735FE049812
:102D000005B0F0BD502080F31188BFF34F8FBFF3A3
:102D10006F8FFEE7502080F31188BFF34F8FBFF312
:102D20006F8FFEE70548416919B1006B18B10020AB
:102D300070470120704702207047000020000020EB
:102D40000148C06870470000200000202DE9F041D4
:102D5000324C0027206B38B1A069401CA061FFF7FE
:102D600087FA3846BDE8F081E668761CE66013D144
:102D7000E06B006838B1502080F31188BFF34F8FAB
:102D8000BFF36F8FFEE7E06B216CE1632064206A84
:102D9000401C2062FFF7F6F8A06ADFF884808642C4
:102DA00009D3E06B006890B1E06BC068C5686868E3
:102DB00086420FD2A0622068C06A00EB800158F8FA
:102DC0002100012800D90127A069F8B120E04FF0C7
:102DD000FF30EFE7281DFFF721FAA86A18B105F1C7
:102DE0001800FFF71BFAE86A2169884200D92061C0
:102DF00000EB800108EB8100291DFFF773FAE86AF8
:102E00002168C96A8842CCD30127CAE7FFF730FAA4
:102E1000E0690028A5D00127A3E7000020000020DA
:102E20007801002070B504004FF0000133D01B4D35
:102E30002868844207D0502080F31188BFF34F8F59
:102E4000BFF36F8FFEE7606D38B1401E6065236D84
:102E5000E26A9A421FD040B11DE0502080F31188F1
:102E6000BFF34F8FBFF36F8FFEE7201DFFF7D6F93B
:102E7000206DE062C0F13800A061E06A29698842F3
:102E800000D92861064900EB800001EB8000211D7C
:102E9000FFF728FA0121084670BD0000200000203D
:102EA0007801002070B5C068C46854B104F11800FE
:102EB0000646FFF7B3F9144D286B50B1314613485D
:102EC00015E0502080F31188BFF34F8FBFF36F8F51
:102ED000FEE7201DFFF7A2F9E06A2969884200D9C0
:102EE00028610B4900EB800001EB8000211DFFF7FA
:102EF000F9F9E06A2968C96A884202D90120E861C3
:102F000070BD002070BD00002000002000060020E1
:102F1000780100202DE9F0472C4D00242746286B2E
:102F200038B1FFF7EBF9286B401E2863286B40B1DE
:102F300046E0502080F31188BFF34F8FBFF36F8FAF
:102F4000FEE7A968224E0120D1B3A6F5916980461B
:102F50003068E0B1F068C46804F11800FFF75EF96A
:102F6000201DFFF75BF9E06A2969884200D92861D2
:102F700000EB800109EB8100211DFFF7B3F9E06A46
:102F80002968C96A8842E3D3C5F81C80E0E70CB120
:102F9000FEF7F8FFAC694CB14FEA0806FFF7D6FE22
:102FA00000B1EE61641EF9D10020A861E86938B172
:102FB0000849012738070860BFF34F8FBFF36F8FB1
:102FC000FFF7BCF93846BDE8F0870000200000207C
:102FD0000006002004ED00E02DE9FC4781461E4676
:102FE000174688462C200A9DFFF782F804000AD075
:102FF000002084F82800CDE9005433463A46414683
:103000004846FEF769FE2046BDE8FC877CB52C26C5
:10301000DDE90654009644B1022684F82860CDE923
:103020000054FEF759FE20467CBD502080F31188E5
:10303000BFF34F8FBFF36F8FFEE7000010B586B070
:10304000FEF7FAFC114C2068B8B100200390049000
:1030500005AA04A903A8FFF7FFF8DDE90321022070
:103060008DE8070000230AA10B48059AFFF72FFE01
:10307000606010B106B0012010BD502080F31188AF
:10308000BFF34F8FBFF36F8FFEE700006400002097
:10309000546D722053766300612000082DE9FF41D2
:1030A0001E46134602000A9D4FF0000016D0144C35
:1030B0002768002F0FD0CDE900130292062917DAF6
:1030C000FFF730FE02284FF000030FD000226946C0
:1030D0002068FFF7E9FB04B0BDE8F081502080F3E1
:1030E0001188BFF34F8FBFF36F8FFEE72A46EEE7DD
:1030F0000023324669463846FFF786FCEBE70000BE
:10310000640000205C3100080000000000000000A6
:1031100000000000000000000002000008000000A5
:103120000000000000000000503100080000000016
:10313000000000000000000000000000000000008F
:10314000010203040607080900000000010203044D
:103150006D7954696D657230310000006465666197
:10316000756C745461736B00883100080000002096
:10317000AC0000008015000834320008AC000020CC
:10318000744D0000901500080000000000000000D1
:10319000000000000000000001000000100000001E
:1031A000000000000024F400000000000000000007
:1031B000000000000000000000000000000000000F
:1031C00000000000000000000000000000000000FF
:1031D00000000000000000000000000000000000EF
:1031E00000000000000000000000000000000000DF
:1031F00000000000000000000000000000000000CF
:1032000000000000000000000000000000000000BE
:1032100000000000000000000000000000000000AE
:103220000000000000000000AAAAAAAA00000000F6
:04323000000000009A
:040000050800019955
:00000001FF
